:020000020000FC
:1000000002C048C04AC04FE54DBF42E04EBF06D0D7
:1000100002D00DD0FFCF08D00DD008950AE005BF63
:1000200000EC0BBF789408950FEF04BB0895F0E047
:10003000ECEB089514D00FEF0ABB07BBF8DFC895AF
:10004000002059F0902D2CD03196F9CFD99880EC22
:1000500088BBD89AD8982AD00895F8DF0895D998FF
:1000600088E388BBD89AD89821D0D9988EE088BBED
:10007000D89AD8981BD007D0D99886E088BBD89A50
:10008000D89814D00895D99881E088BBD89AD89888
:100090000DD0089591E404D0189592E401D01895FC
:1000A000D99A98BBD89AD89801D0089524E332EF12
:1000B0003A95F1F72A95E1F700000895496E7075B9
:0A00C00074206B617461203A0000A7
:00000001FF
