:020000020000FC
:1000000000C04FE54DBF42E04EBF00D002D007D048
:1000100008950FEF04BB0895F0E0ECE808950CD0CC
:100020000FEF0ABB07BBF8DFC895002021F0902D29
:100030001ED03196F9CF0895D99888E388BBD89A15
:10004000D8981BD0D9988EE088BBD89AD89815D06C
:1000500007D0D99886E088BBD89AD8980ED0089552
:10006000D99881E088BBD89AD89807D00895D99AB2
:1000700098BBD89AD89801D0089524E332EF3A95E6
:10008000F1F72A95E1F700000895FFCF496E7075EA
:0A00900074206B617461203A0000D7
:00000001FF
