:020000020000FC
:1000000002C056C05FC05FE55DBF52E05EBF60ECFE
:100010000FD00BD016D091E4192E66D073D0D9989A
:10002000862F88BBD89AD898FFCF08D00DD00895D6
:100030000AE005BF00EC0BBF789408950FEF04BBF6
:100040000895F1E0EAE0089518D00FEF0ABB07BB6E
:10005000F8DFC895002079F0902D46D03196F9CF81
:10006000D99880EC88BBD89AD89844D00895ADB779
:10007000BEB79C930895F4DF0895D99888E388BBB0
:10008000D89AD89837D0D9988FE088BBD89AD89882
:1000900031D007D0D99886E088BBD89AD8982AD092
:1000A0000895D99881E088BBD89AD89823D008952C
:1000B00001E0100E912D18D0862FD99888BBD89AC0
:1000C000D8981895912DD3DF91E4192E01E0600F97
:1000D000862FD99888BBD89AD89806D0862FD998D9
:1000E00088BBD89AD8981895D99A98BBD89AD89896
:1000F00001D0089524E332EF3A95F1F72A95E1F71C
:100100000000089500C000C00895496E7075742005
:080110006B617461203A0000EC
:00000001FF
