:020000020000FC
:1000000000C05FE55DBF52E05EBF60EC17D013D06B
:1000100019D091E4192E78D085D0D998862F88BB35
:10002000D89AD89882994DC083995BC0849945C06D
:1000300085993FC0F7CF03D008D0089508950FEFFA
:1000400004BB0895F1E0EAE2089518D00FEF0ABB6F
:1000500007BBF8DFC895002079F0902D55D0319678
:10006000F9CFD99880EC88BBD89AD89853D0089506
:10007000ADB7BEB79C930895F4DF0895D99888E38F
:1000800088BBD89AD89846D0D9988FE088BBD89AA0
:10009000D89840D007D0D99886E088BBD89AD8980D
:1000A00039D00895D99881E088BBD89AD89832D0B1
:1000B000089592E429D02ED0B5CF93E425D02AD04C
:1000C000B1CF01E0100E012D0B3511F401E4102E1B
:1000D000912D1AD0862FD99888BBD89AD8981AD043
:1000E000A1CF912DC5DF91E4192E01E0600F862F7D
:1000F000D99888BBD89AD89807D0862FD99888BB2A
:10010000D89AD89807D08ECFD99A98BBD89AD89831
:1001100001D0089524E332EF3A95F1F72A95E1F7FB
:100120000000089500C000C00895496E70757420E5
:080130006B617461203A0000CC
:00000001FF
