:020000020000FC
:1000000002C056C065C05FE55DBF52E05EBF60ECF8
:100010000FD00BD016D091E4192E6CD079D0D9988E
:10002000862F88BBD89AD898FFCF08D00DD00895D6
:100030000AE005BF00EC0BBF789408950FEF04BBF6
:100040000895F1E0E6E1089518D00FEF0ABB07BB71
:10005000F8DFC895002079F0902D4CD03196F9CF7B
:10006000D99880EC88BBD89AD8984AD00895ADB773
:10007000BEB79C930895F4DF0895D99888E388BBB0
:10008000D89AD8983DD0D9988FE088BBD89AD8987C
:1000900037D007D0D99886E088BBD89AD89830D086
:1000A0000895D99881E088BBD89AD89829D0089526
:1000B00001E0100E012D0B3541F0912D1BD0862F44
:1000C000D99888BBD89AD898189501E4102EF5CF06
:1000D000912DCDDF91E4192E01E0600F862FD99884
:1000E00088BBD89AD89806D0862FD99888BBD89A3A
:1000F000D8981895D99A98BBD89AD89801D00895CD
:1001000024E332EF3A95F1F72A95E1F700000895DC
:1001100000C000C00895496E707574206B617461F1
:04012000203A000081
:00000001FF
